:100000000C942A000C943C100C9465100C948E10E7
:100010000C9498120C94C1120C9447000C94DF11AC
:100020000C9408120C9431120C94FD100C942611AF
:100030000C9447000C946C130C948C130C94470094
:100040000C94F90D0C9447000C9447000C94470055
:100050000C94470011241FBECFE5D8E0DEBFCDBF12
:1000600011E0A0E6B0E0E2EAF8E202C005900D92ED
:10007000AC34B107D9F722E0ACE4B1E001C01D9285
:10008000A035B207E1F70E94AE130C944F140C9404
:1000900000000E9407088130910521F086E090E081
:1000A0000C94CE0180934C0190934D0165E080E06B
:1000B0000E94690886E090E00C94CE0165E080E043
:1000C0000E94560862E080E00E94B30F69E470E08D
:1000D00080E00C942710CF93DF93EC010E94070877
:1000E0008130910579F0C130D10530F0D1F02297FF
:1000F00091F0DF91CF91089585E090E0DF91CF916D
:100100000C94CE0180934C0190934D0165E080E00A
:100110000E946908E8CF87E090E0DF91CF910C94CE
:10012000CE0186E090E0DF91CF910C94CE01109249
:100130004C0110924D0165E080E00E946C0888E05F
:1001400090E00C94CE0181E020914C0130914D0162
:100150002130310509F080E0089580E00E944B0DC8
:10016000823330F080914C0190914D01019709F458
:1001700008950E9407088130910521F085E090E004
:100180000C94CE0180934C0190934D0165E080E08A
:100190000E946908F3CFCF93DF930F92CDB7DEB7FC
:1001A0001982BE016F5F7F4F80E090E00E94590F7F
:1001B00089818F3F31F010924E010F90DF91CF91E6
:1001C000089544E050E061E670E080E090E00E9435
:1001D000680F10924E010F90DF91CF9108950F9309
:1001E0001F93CF93DF9300D000D0CDB7DEB78C0143
:1001F00019821A821B821C82892B61F180914E0127
:10020000833098F544E050E0BE016F5F7F4F80E09F
:1002100090E00E94900FFE013196D801AE014B5F35
:100220005F4F91E031912D9181E0321380E098236E
:10023000E417F507B9F7913019F180914E018F5FFE
:1002400080934E0182E090E00E94CE0180914E01A9
:10025000833018F481E090E00AC082E090E00E94D0
:100260006B0083E090E00E94CE0182E090E00F906E
:100270000F900F900F90DF91CF911F910F910895E4
:1002800010924E0181E090E00E94CE0180E090E06B
:10029000EECF009721F020914E01233008F0089511
:1002A00044E050E0BC0180E090E00E94680F84E0F0
:1002B00090E00C94CE0180914E01089510924E0171
:1002C000089581E090914E01933008F480E0089504
:1002D000CF93DF9300D00F92CDB7DEB781111CC052
:1002E0001982E0E0F0E041E050E031E0CE0102961A
:1002F000E80FF91FDB0190E08291805D8D939F5F95
:100300009317D0F3640F751FFB0110820F900F90AD
:100310000F90DF91CF91089530E04DECFE013196C2
:10032000E30FF11D849F912D112496959695969536
:10033000292F220F220F290F220F582F521B5083D3
:10034000282F892F3F5F2A3048F740E050E03115D1
:10035000C9F2432F50E0FA013197C8CFCF93DF9312
:100360000F92CDB7DEB7BE016F5F7F4F80E990E09F
:100370000E94590F8981803230F4809350010F9090
:10038000DF91CF9108951092500160E080E990E0F4
:100390000E94490F0F90DF91CF910895CF93DF9383
:1003A000C0915001D0E0A896CC0FDD1F682FCE0180
:1003B0000E94490F60914F01CE0101960E94490FA2
:1003C00080914F018F5F80934F01609150016F5F6B
:1003D0006F716093500180E990E0DF91CF910C94B0
:1003E000490F0F931F93CF93DF9300D000D000D01D
:1003F000CDB7DEB700E510E0BE016A5F7F4FC801F0
:100400000E94590F8E818F3F39F1BE016B5F7F4F84
:10041000C80101960E94590F8FE890E00E943113A5
:10042000BE016F5F7F4F8E810E946801CE010196F1
:100430000E94311384E990E00E943113BE016F5F86
:100440007F4F8D810E946801CE0101960E94311379
:100450008AE990E00E9431130E5F1F4F00391105A9
:1004600059F60F900F900F900F900F900F90DF9113
:10047000CF911F910F91089562E080E00E94360DA8
:1004800063E080E00E94690D64E080E00E94690DF5
:1004900041E062E080E00E943F0D809151018E7F3B
:1004A0008093510140E063E080E00E94820D8091E2
:1004B00051018D7F8093510140E064E080E00E9413
:1004C000820D809151018B7F809351010895CF93CC
:1004D000DF9300D000D0CDB7DEB78B839C836983D8
:1004E0007A830E941508892B89F48B819C81892B42
:1004F000A1F08B819C810197A1F18B819C81029756
:1005000009F447C08B819C810397E1F00F900F9015
:100510000F900F90DF91CF91089589819A8141E0EA
:1005200062E0019769F180E00E943F0D80915101E6
:100530008E7F809351010F900F900F900F90DF915D
:10054000CF91089589819A818130910511F080E0E1
:1005500090E00F900F900F900F90DF91CF910C943F
:10056000FE0789819A8140E063E0019709F180E00C
:100570000E94820D809151018D7F80935101C6CFE1
:1005800080E00E94390D809151018160809351017A
:10059000BDCF89819A8140E064E0019791F080E0CD
:1005A0000E94820D809151018B7F80935101AECFCB
:1005B00080E00E947C0D8091510182608093510106
:1005C000A5CF80E00E947C0D8091510184608093D2
:1005D00051019CCFCF93DF93EC0180915101817049
:1005E000C130D10590F069F0C230D105B9F0C33007
:1005F000D105E1F061E070E0CE01DF91CF910C9484
:1006000067028091510186958170813099F760E091
:1006100070E0CE01DF91CF910C946702809151017F
:1006200082FB882780F9813029F7F1CF0E940708E3
:10063000ECCFCF93DF9300D000D00F92CDB7DEB7D1
:100640000E941508019741F00F900F900F900F90A6
:100650000F90DF91CF91089580E00E944B0D898328
:1006600081E00E94250D8A830E94D4078B830E941B
:10067000F9078C839D838B818F5F29812817F0F484
:100680008B8181509981891778F58C819D810297A2
:100690002A8182179105E8F48C819D8102962A8136
:1006A0002817190688F241E062E080E00E943F0DC1
:1006B000809151018E7F80935101C6CF40E063E06D
:1006C00080E00E947C0D80915101826080935101F5
:1006D000DCCF41E062E080E00E94390D8091510161
:1006E000816080935101B0CF40E063E080E00E94E0
:1006F000820D809151018D7F80935101C6CF813051
:10070000910520F4809151018170089539F0823073
:10071000910549F0039769F080E0089580915101B7
:100720008695817008958091510182FB882780F918
:1007300008950E9407080895CF93DF9300D00F9289
:10074000CDB7DEB781111CC01982E0E0F0E041E0D6
:1007500050E031E0CE010296E80FF91FDB0190E096
:100760008291805D8D939F5F9317D0F3640F751F07
:10077000FB0110820F900F900F90DF91CF910895A1
:1007800030E04DECFE013196E30FF11D849F912D79
:100790001124969596959695292F220F220F290FB1
:1007A000220F582F521B5083282F892F3F5F2A304A
:1007B00048F740E050E03115C9F2432F50E0FA010C
:1007C0003197C8CFCF93DF93CDB7DEB72A970FB657
:1007D000F894DEBF0FBECDBF80E895E289839A838F
:1007E0001B821C8283E08D831E821F8218861986DD
:1007F0001A86CE0101960E94EA1240E150E06FEFA6
:1008000070E083E691E00E94481440E150E06FEF11
:1008100070E082E591E00E944814109273011092FA
:1008200062012A960FB6F894DEBF0FBECDBFDF91EE
:10083000CF910895CF93DF93CDB7DEB7A6970FB6CC
:10084000F894DEBF0FBECDBF4EE050E060E270E036
:10085000CE0144960E94481484E58A8B8AE38B8BF0
:1008600080E00E944B0DBE016D5D7F4F0E949C0396
:100870008BA1811509F4B5C08C8B8CA1811539F041
:100880008D8B8DA1811509F4A5C08E8B82E08D5FC3
:1008900090E0FE017296E80FF91F83E480838DE4F7
:1008A00088A30E941508019709F46AC08DE489A302
:1008B0001AA24EE050E060E270E0CE0103960E9482
:1008C00048148CE489838AE38A8381E00E94250DA1
:1008D000BE016D5D7F4F0E949C038BA1811509F4C1
:1008E0007DC08B838CA1811539F08C838DA18115FE
:1008F00009F472C08D8382E08D5F90E0FE01319635
:10090000E80FF91F85E2808381E48A878CE48B8776
:100910008AE38C870E94A3008130B1F18DE28D873C
:100920000E94A300813071F180E28E87198AFE0156
:100930007296A3E6B1E09E012E5D3F4F90818C91AF
:10094000981336C0319611962E173F07B9F7FE015E
:100950003196A2E5B1E09E012F5E3F4F90818C91D0
:10096000981314C031961196E217F307B9F7A696BB
:100970000FB6F894DEBF0FBECDBFDF91CF910895C3
:1009800081E495CF8EE4D1CF8FE4C9CF60E081E0E0
:100990000E94970BCE0101960E94620B81E1FE013D
:1009A0003196A2E5B1E001900D928A95E1F7DFCF93
:1009B00060E080E00E94970BCE0142960E94620B9D
:1009C00081E1FE017296A3E6B1E001900D928A9555
:1009D000E1F7BDCF81E05BCF81E08ECF82E090E098
:1009E0008DCF82E090E055CFCF93DF9300D000D041
:1009F000CDB7DEB781E990E00E94311380E00E941C
:100A00004B0DBE016F5F7F4F0E949C03CE0101968C
:100A10000E9431138DE990E00E94311381E00E9421
:100A2000250DBE016F5F7F4F0E949C03CE01019692
:100A30000E94311381EA90E00E9431130E94150850
:100A4000BE016F5F7F4F0E949C03CE0101960E9402
:100A5000311385EA90E00E9431130E94A300BE0189
:100A60006F5F7F4F0E949C03CE0101960E9431135D
:100A70008AE990E00E9431130F900F900F900F9031
:100A8000DF91CF910895CF93DF9300D000D00F92E4
:100A9000CDB7DEB78D838BEA90E00E943113BE01A3
:100AA0006F5F7F4F8D810E949C03CE0101960E9453
:100AB00031138AE990E00E9431130F900F900F904C
:100AC0000F900F90DF91CF9108958091E201909166
:100AD000E301A091E401B091E5010196A11DB11DD2
:100AE0008093E2019093E301A093E401B093E501C8
:100AF0000895CF93DF93CDB7DEB72B970FB6F89459
:100B0000DEBF0FBECDBF83E089831A8288E08B836E
:100B10001C821D821E821F82188681E089871A86A8
:100B20008CE78B8785E695E00E94F810CE01019650
:100B30000E94BF10E4E7F1E010821182128213825A
:100B400014821582168217821086118612863B96B1
:100B500081E0E23EF80781F72B960FB6F894DEBFEE
:100B60000FBECDBFDF91CF9108952FB78FB78F778D
:100B70008FBF6091E2017091E3018091E401909157
:100B8000E5012FBF0895AF92BF92CF92DF92EF920F
:100B9000FF920F931F93EFB7FFB7FF77FFBFE09070
:100BA000E201F090E3010091E4011091E501EFBF53
:100BB00057016801A61AB70AC80AD90AC501D601A1
:100BC00061E082179307A407B50708F460E0862F59
:100BD0001F910F91FF90EF90DF90CF90BF90AF905B
:100BE0000895DC01EEE7F1E020E030E09081911122
:100BF00023C0822F9BE0929FF001939FF00D112460
:100C0000EC58FE4FA083B183428353836483758382
:100C10002FB79FB79F779FBF4091E2015091E301AB
:100C20006091E4017091E5012FBF4683578360878F
:100C3000718791E0928708952F5F3F4F3B962A304E
:100C40003105A1F68FEF08950F931F93CF93DF9394
:100C5000C4E7D1E005C02B9681E0C23ED807D1F1B0
:100C60008A858130C1F74A815B816C817D810E81EB
:100C70001F8128853985EFB78FB78F778FBF809118
:100C8000E2019091E301A091E401B091E501EFBF91
:100C9000801B910BA20BB30B84179507A607B70710
:100CA000D0F22FB78FB78F778FBF8091E2019091ED
:100CB000E301A091E401B091E5012FBF8E839F83F2
:100CC000A887B987E881F98109952B9681E0C23E12
:100CD000D80731F6DF91CF911F910F91089560E011
:100CE00080E00E94970B0E941508019761F081EC4B
:100CF00090E00E94620B60E081E00E94970B82ED21
:100D000090E00C94620B80EB90E00E94620B60E03C
:100D100081E00E94970B82ED90E00C94620B1092A0
:100D2000EB011092EC0160E080E00E94970B84EEF2
:100D300090E00E94620B60E081E00E94970B85EFDB
:100D400090E00E94620B1092E6010895CF930E94FA
:100D50000609C82F8F3F99F1809160008C1779F1B7
:100D60008091EB019091EC018130910560F5C334E5
:100D700009F45CC080ED8C0F8A3008F58091E601A3
:100D80008430E8F4E82FF0E0E951FE4FC0838F5F34
:100D90008093E601843099F487EE91E00E94EF00A1
:100DA000009711F160E0029709F481C081E00E9490
:100DB000970B87E191E00E94620B1092E601C093CD
:100DC0006000CF910895C1F00297C9F7C13309F4CB
:100DD00055C0C23309F457C0C33309F45EC0C433ED
:100DE00009F460C0C33459F781E08093EB0110929D
:100DF000EC010E946F06E3CFCA3289F1CF32C9F00D
:100E0000C334E9F61092EB011092EC0160E080E04F
:100E10000E94970B84EE90E00E94620B60E081E0FC
:100E20000E94970B85EF90E00E94620B1092E60102
:100E3000C6CF82E08093EB011092EC0160E080E08D
:100E40000E94970B88E291E00E94620B60E081E0D3
:100E50000E94970B8BE391E00E94620BB0CF0E943F
:100E60001508892BA9F481E090E00E940C0889E024
:100E700090E00E94CE010E946F06A1CF80E090E03A
:100E80000E94EA029CCF81E090E00E94EA0297CFA4
:100E900080E090E00E940C08EACF82E090E00E949F
:100EA000EA028DCF83E090E00E94EA0288CF81E0E1
:100EB0000E94970B86E091E00E94620B1092E6017F
:100EC0007ECFCF93DF9300D0CDB7DEB7BE016E5F8C
:100ED0007F4F84E090E00E94590F8A818F3F59F143
:100EE0006DEE71E084E090E00E94590F42E050E026
:100EF0006EEE71E085E090E00E94900FBE016F5FA2
:100F00007F4F80E490E00E94590F898190E08093A8
:100F1000F0011092F101BE016F5F7F4F80E30E94EC
:100F2000590F89818093F2011092F3010F900F9075
:100F3000DF91CF9108958EE18093ED0188E290E0FA
:100F40008093EE011092EF0181E08093F001109206
:100F5000F1011092F2011092F3016EE184E00E941F
:100F6000490F42E050E06EEE71E085E090E00E94B3
:100F7000680F6091F00180E490E00E94490F609159
:100F8000F20180E390E00E94490F0F900F90DF91F3
:100F9000CF910895853608F008958093ED01682F6C
:100FA00084E090E00C94490F8091ED010895CF9377
:100FB000DF9300D0CDB7DEB79C0189839A83853655
:100FC000910528F00F900F90DF91CF9108958093B5
:100FD000EE013093EF0142E050E0BE016F5F7F4FC2
:100FE00085E090E00E94680F0F900F90DF91CF9105
:100FF00008958091EE019091EF0108958093F001A2
:101000009093F101682F80E490E00C94490F809157
:10101000F0019091F10108958093F2019093F30112
:10102000682F80E390E00C94490F8091F201909139
:10103000F3010895CF93DF9300D00F92CDB7DEB7C1
:1010400089836A834B8340E00E94330E8B8141E0A9
:10105000811559F08B818150823030F00F900F90C4
:101060000F90DF91CF91089540E06A8189810F90C0
:101070000F900F90DF91CF910C94810ECF93DF935F
:101080000F92CDB7DEB79FEF9983433028F08FEFF3
:101090000F90DF91CF910895AE014F5F5F4F0E9497
:1010A000CF0E89810F90DF91CF910895CF93DF9379
:1010B00000D0CDB7DEB789836A8341E00E94330E4A
:1010C00040E06A8189810F900F90DF91CF910C945D
:1010D000810E41E00C94810E40E00C94810ECF9380
:1010E000DF9300D00F92CDB7DEB789836A834B833D
:1010F00041E00E94330E41E06B8189810E94330EF2
:1011000040E06A8189810E94810E40E06B81898183
:101110000F900F900F90DF91CF910C94810ECF9391
:10112000DF9300D0CDB7DEB789834A83213058F0F2
:1011300019F140E02230A1F0233089F00F900F9098
:10114000DF91CF91089540E00E94810E40E06A81D6
:1011500089810F900F90DF91CF910C94810E41E027
:1011600089810E94810E41E06A8189810F900F90F0
:10117000DF91CF910C94810E41E089810E94810E14
:1011800040E06A8189810F900F90DF91CF910C949C
:10119000810EEF92FF920F931F93CF93DF93C1E8DD
:1011A000D0E09DE7E92E90E0F92E0991F701119129
:1011B0007F0141E0602F812F0E94330E41E0602FBC
:1011C000812F0E94810EF0E0C538DF0771F7C9E773
:1011D000D0E085E7E82E80E0F82E0991F701119123
:1011E0007F0140E0602F812F0E94330E41E0602F8D
:1011F000812F0E94810EF0E0CD37DF0771F7DF917C
:10120000CF911F910F91FF90EF9008953F924F92D1
:101210005F926F927F928F929F92AF92BF92CF9286
:10122000DF92EF92FF920F931F93CF93DF930F9272
:10123000CDB7DEB791E8892E90E0992E2DE7622E8A
:1012400020E0722E35E6A32E30E0B32E33243A94FC
:10125000F40141904F01F30151903F0140E0642DB2
:10126000852D0E94810E09E710E085E7C82E80E0F9
:10127000D82E7501F80161918F01AE014F5F5F4F6C
:10128000F60181916F010E94CF0E8981811102C008
:10129000F7013080FFEFEF1AFF0A80E00D371807E3
:1012A00049F741E0642D852D0E94810EE4E0AE0EE9
:1012B000B11CF5E88F16F0E09F0651F6832D0F90D4
:1012C000DF91CF911F910F91FF90EF90DF90CF9022
:1012D000BF90AF909F908F907F906F905F904F9056
:1012E0003F9008951F93CF93DF93CDB7DEB7289734
:1012F0000FB6F894DEBF0FBECDBF182F482F417038
:1013000064E082E00E94810E11FB442740F965E011
:1013100082E00E94810E12FB442740F966E082E0E1
:101320000E94810E412F46954695469567E082E0E2
:101330000E94810E41E063E082E00E94810E80ED18
:1013400097E0A0E0B0E08D839E83AF83B8878D8166
:101350009E81AF81B885AC01BD0141505109610941
:1013600071094D835E836F837887892B8A2B8B2B42
:1013700071F740E063E082E00E94810E80ED97E02B
:10138000A0E0B0E089839A83AB83BC8389819A8192
:10139000AB81BC81AC01BD014150510961097109AA
:1013A00049835A836B837C83892B8A2B8B2B71F720
:1013B00028960FB6F894DEBF0FBECDBFDF91CF9158
:1013C0001F910895CF93DF93CDB7DEB7A4970FB6E3
:1013D000F894DEBF0FBECDBF1092F4011092F5015C
:1013E00041E062E082E00E94330E41E063E082E08F
:1013F0000E94330E41E064E082E00E94330E41E03F
:1014000065E082E00E94330E41E066E082E00E94E7
:10141000330E41E067E082E00E94330E40E062E07C
:1014200082E00E94810E80E791E1A1E0B0E089A313
:101430009AA3ABA3BCA389A19AA1ABA1BCA1AC0107
:10144000BD01415051096109710949A35AA36BA318
:101450007CA3892B8A2B8B2B71F783E00E94720966
:1014600080E197E2A0E0B0E08D8F9E8FAF8FB8A3B0
:101470008D8D9E8DAF8DB8A1AC01BD01415051093C
:10148000610971094D8F5E8F6F8F78A3892B8A2B2D
:101490008B2B71F783E00E94720980ED97E0A0E04A
:1014A000B0E0898F9A8FAB8FBC8F898D9A8DAB8D71
:1014B000BC8DAC01BD014150510961097109498FD1
:1014C0005A8F6B8F7C8F892B8A2B8B2B71F783E044
:1014D0000E94720980ED97E0A0E0B0E08D8B9E8BBA
:1014E000AF8BB88F8D899E89AF89B88DAC01BD0156
:1014F00041505109610971094D8B5E8B6F8B788F5B
:10150000892B8A2B8B2B71F782E00E94720980ED68
:1015100097E0A0E0B0E0898B9A8BAB8BBC8B89897C
:101520009A89AB89BC89AC01BD014150510961095F
:101530007109498B5A8B6B8B7C8B892B8A2B8B2B5C
:1015400071F740E062E082E00E94810E82E00E943A
:10155000720988E00E94720980ED97E0A0E0B0E097
:101560008D879E87AF87B88B8D859E85AF85B8891F
:10157000AC01BD0141505109610971094D875E8778
:101580006F87788B892B8A2B8B2B71F740E062E079
:1015900082E00E94810E80E00E9472098FE00E942A
:1015A000720980ED97E0A0E0B0E089879A87AB8769
:1015B000BC8789859A85AB85BC85AC01BD0141504E
:1015C00051096109710949875A876B877C87892B83
:1015D0008A2B8B2B71F740E062E082E00E94810E43
:1015E00080E00E94720981E00E94720980EA9FE017
:1015F000A0E0B0E08D839E83AF83B8878D819E810C
:10160000AF81B885AC01BD01415051096109710933
:101610004D835E836F837887892B8A2B8B2B71F7A1
:1016200040E062E082E00E94810E80E00E94720948
:1016300086E00E94720980ED97E0A0E0B0E0898327
:101640009A83AB83BC8389819A81AB81BC81AC01D5
:10165000BD01415051096109710949835A836B8366
:101660007C83892B8A2B8B2B71F78091F401A496B4
:101670000FB6F894DEBF0FBECDBFDF91CF910895B6
:10168000CF93C82F40E062E082E00E94810E8C2F51
:1016900082958F700E9472098C2F8F70CF910C945D
:1016A0007209CF93C82F41E062E082E00E94810E70
:1016B0008C2F82958F700E9472098C2F8F70CF9122
:1016C0000C9472090F931F93CF93DF938C010097B3
:1016D00021F11092F4011092F501FC01C081C115B5
:1016E000B1F0D0E041E062E082E00E94810E8C2FF8
:1016F00082958F700E9472098C2F8F700E947209E0
:10170000DF5FF801ED0FF11DC081C111EBCF80E06B
:10171000DF91CF911F910F91089583E08093F401A1
:101720001092F501DF91CF911F910F9108951F93B2
:10173000CF93DF9300D000D0CDB7DEB7162F603146
:1017400008F047C0813078F069F081E08093F401BF
:101750001092F5010F900F900F900F90DF91CF91A5
:101760001F910895105C1092F4011092F50140E071
:1017700062E082E00E94810E812F82958F708860E6
:101780000E947209812F8F700E94720980ED97E08C
:10179000A0E0B0E089839A83AB83BC8389819A817E
:1017A000AB81BC81AC01BD01415051096109710996
:1017B00049835A836B837C83892B8A2B8B2B71F70C
:1017C00080E00F900F900F900F90DF91CF911F91BD
:1017D000089582E08093F4011092F5010F900F902C
:1017E0000F900F90DF91CF911F9108958F929F924C
:1017F000AF92BF92DF92EF92FF920F931F93CF931E
:10180000DF93CDB7DEB72A970FB6F894DEBF0FBED1
:10181000CDBF4B015C0181149104A104B10409F412
:101820006BC09CF441E062E082E00E94810E82E0A5
:101830000E9472098DE00E947209B094A094909465
:101840008094811C911CA11CB11CD82C092D750100
:1018500010E09AE0892E912CA12CB12C6D2D702FC7
:10186000C7019401A5010E942614FE013196E10FE3
:10187000F11D605D60838D2D902FD701D22E032F37
:101880007A01212F1F5F0A97A105B10538F71115BD
:1018900009F181E0E82EF12CEC0EFD1EE10EF11CA9
:1018A000CE01810F911D8C01021B1109F701D2900D
:1018B0007F0141E062E082E00E94810E8D2D8295E1
:1018C0008F700E9472098D2D8F700E9472090E1503
:1018D0001F0561F72A960FB6F894DEBF0FBECDBF85
:1018E000DF91CF911F910F91FF90EF90DF90BF900C
:1018F000AF909F908F90089541E062E082E00E9457
:10190000810E83E00E94720980E02A960FB6F89457
:10191000DEBF0FBECDBFDF91CF911F910F91FF9022
:10192000EF90DF90BF90AF909F908F900C947209D2
:10193000CF92DF92FF920F931F93CF93DF9300D04C
:1019400000D0CDB7DEB78C01892B09F46EC06830AA
:1019500008F065C01092F4011092F501F62EFF0C0C
:10196000FF0CFF0C40E062E082E00E94810E8F2DB0
:1019700082958F7084600E9472098F2D88700E94FA
:101980007209680188E0C80ED11CF801F1908F013E
:1019900041E062E082E00E94810E8F2D82958F707F
:1019A0000E9472098F2D8F700E9472090C151D05FF
:1019B00061F71092F4011092F50140E062E082E0DC
:1019C0000E94810E88E00E94720980E00E947209E4
:1019D00080ED97E0A0E0B0E089839A83AB83BC837D
:1019E00089819A81AB81BC81AC01BD014150510913
:1019F0006109710949835A836B837C83892B8A2B04
:101A00008B2B71F780E00F900F900F900F90DF916C
:101A1000CF911F910F91FF90DF90CF90089585E0B7
:101A20008093F4011092F501EECF83E08093F401EE
:101A30001092F501E8CF8091F4019091F50108959D
:101A40001092F4011092F50108950E94D20D9C01AC
:101A5000A4E6B0E00E941714A92F982F872FA6950F
:101A600097958795A69597958795089541E00C944D
:101A7000330E413011F008F008950C94810E41307E
:101A800029F008F0089541E00C94810E40E00C9498
:101A9000810E0C94120F0E94D20D9C01A8E8B3E1B4
:101AA0000E941714272F382F492F50E0469537955D
:101AB0002795469537952795889748F4B901CA0127
:101AC0002AE030E040E00E942614822F08958FEF34
:101AD0000895CF93DF9300D0CDB7DEB789836A83B3
:101AE00041E00E94330E40E06A8189810F900F909F
:101AF000DF91CF910C94810E413011F008F00895E0
:101B00000C94810E413029F008F0089541E00C94C6
:101B1000810E40E00C94810E6FEF0C94710E4A30F0
:101B200068F491E061110BC0692F6195E42FF0E03A
:101B3000EB57FF4F908169270C94BF0E089590E0FA
:101B4000F3CF611103C06FEF0C94BF0E60E00C94F3
:101B5000BF0EFC01892BF1F097B19F738081892B17
:101B600087B997B19F7D8281892B87B996B1987F7C
:101B70008481892B86B986819781809761F0359819
:101B800096B1977F8285892B86B996B19F77848598
:101B9000892B86B90895359A90B79F718085892BD6
:101BA00080BFEECF97B18F71907E892B87B9369A1F
:101BB000349BFECF349A3D9B0DC024B185B1229554
:101BC00026952695237090E0880F991F880F991FFE
:101BD000822B089584B195B1089597B18F71907E4D
:101BE000892B87B9369A08958093F6019093F7016F
:101BF00008951F920F920FB60F9211242F933F93C7
:101C00004F935F936F937F938F939F93AF93BF9304
:101C1000EF93FF933D9B24C024B185B12295269577
:101C20002695237090E0880F991F880F991F822BAB
:101C3000E091F601F091F701309709F00995FF91D5
:101C4000EF91BF91AF919F918F917F916F915F9134
:101C50004F913F912F910F900FBE0F901F901895AD
:101C600084B195B1E5CF8430C0F46830B0F4413030
:101C7000A9F098F421E001C0220F6A95EAF72095B7
:101C8000823039F1833031F0813039F18AB38223E7
:101C90008ABB089581B3822381BB089521E001C0EE
:101CA000220F6A95EAF7823061F0833031F081309B
:101CB00061F08AB3822B8ABB089581B3822B81BBEA
:101CC000089584B3822B84BB089587B3822B87BB8E
:101CD000089584B3822384BB089587B3822387BB8E
:101CE0000895823049F020F4811541F067BB0895D2
:101CF000833031F461BB089564BB08956ABB0895D5
:101D000008958430C0F46830B0F44130A9F098F4FC
:101D100021E001C0220F6A95EAF72095823039F15F
:101D2000833031F0813039F18BB382238BBB08953E
:101D300082B3822382BB089521E001C0220F6A95FD
:101D4000EAF7823061F0833031F0813061F08BB39B
:101D5000822B8BBB089582B3822B82BB089585B3FF
:101D6000822B85BB089588B3822B88BB089585B3E9
:101D7000822385BB089588B3822388BB089582306F
:101D800049F020F4811541F068BB0895833031F4A7
:101D900062BB089565BB08956BBB08950895411516
:101DA0005105B1F0683080F48230D1F0A8F481158B
:101DB000C9F086B390E002C0959587956A95E2F7E1
:101DC0008170FA01808308958FEFFA01808308956E
:101DD0008FEF8093000008958330B1F780B3EACF8E
:101DE00083B3E8CF89B3E6CF6115710571F0823016
:101DF000A9F030F4811571F086B3FB01808308955A
:101E0000833021F08FEFFB018083089580B3FB01C5
:101E10008083089589B3FB018083089583B3FB0118
:101E2000808308958430A0F4683090F421E001C0EC
:101E3000220F6A95EAF7823061F0833031F0813009
:101E400061F08BB382278BBB089582B3822782BB5C
:101E5000089585B3822785BB089588B3822788BB00
:101E60000895823069F030F4811571F088B380955F
:101E700088BB0895833061F482B3809582BB089556
:101E800085B3809585BB08958BB380958BBB0895F2
:101E900008959C01343060F4E199FECF3FBB2EBB26
:101EA0006DBB9FB78FB78F778FBFE29AE19A9FBFC5
:101EB00008959C016115710551F0343040F4E199A9
:101EC000FECF3FBB2EBBE09A8DB3FB01808308950C
:101ED000CF93DF93DC01EB012097F9F04115510519
:101EE000E1F0480F591F9C01343090F4F901EA1BCE
:101EF000FB0BEC0FFD1F9081E199FECF3FBB2EBB8A
:101F00009DBB7FB79FB79F779FBFE29AE19A7FBF44
:101F10002F5F3F4F2417350739F7DF91CF91089591
:101F20009C0161157105F1F041155105D9F0FB01D6
:101F3000460F571F06C031962F5F3F4FE417F50736
:101F400089F03097C1F33430B0F7E199FECF3FBB51
:101F50002EBBE09A8DB3808331962F5F3F4FE417FD
:101F6000F50779F70895813060F4613070F485B732
:101F70008E7F85BF85B78D7F85BF8BB780648BBF14
:101F8000089579F08230C9F00895F9F0623081F156
:101F9000633099F785B7816085BF85B7826085BF5B
:101FA000ECCF6130C8F485B78B7F85BF85B7877F5D
:101FB00085BF8BB780688BBF0895623059F163305D
:101FC000F1F08BB780628BBF089585B7816085BFC4
:101FD00085B78D7F85BFD1CF09F16230A1F0633025
:101FE00041F785B7846085BF85B7886085BFE1CF3D
:101FF00085B78E7F85BF85B7826085BFBECF84B72A
:10200000806484BFDECF85B78B7F85BF85B788604E
:1020100085BFCFCF84B78F7B84BFD3CF85B7846094
:1020200085BF85B7877F85BFC4CF813020F48BB74C
:102030008F7B8BBF089519F0823029F008958BB7FC
:102040008F778BBF08958BB78F7D8BBF08958130BD
:1020500028F46093FC017093FD01089519F082301B
:1020600031F008956093FA017093FB010895609335
:10207000F8017093F90108951F920F920FB60F9215
:1020800011242F933F934F935F936F937F938F937D
:102090009F93AF93BF93EF93FF93E091FC01F09177
:1020A000FD01309709F00995FF91EF91BF91AF9134
:1020B0009F918F917F916F915F914F913F912F9160
:1020C0000F900FBE0F901F9018951F920F920FB692
:1020D0000F9211242F933F934F935F936F937F93AE
:1020E0008F939F93AF93BF93EF93FF93E091FA0188
:1020F000F091FB01309709F00995FF91EF91BF91A5
:10210000AF919F918F917F916F915F914F913F918F
:102110002F910F900FBE0F901F9018951F920F9246
:102120000FB60F9211242F933F934F935F936F93AA
:102130007F938F939F93AF93BF93EF93FF93E09120
:10214000F801F091F901309709F00995FF91EF91AD
:10215000BF91AF919F918F917F916F915F914F91BF
:102160003F912F910F900FBE0F901F9018958FB732
:1021700080688FBF08958FB78F778FBF0895FC0158
:10218000892BF9F093B7977B8281892B83BF93B713
:102190009F7C8481892B83BF82858CBF86819781B8
:1021A000019781F089B78E7F89BF808591850197DE
:1021B00081F089B78D7F89BF93B7987F8081892B04
:1021C00083BF089589B7816089BF80859185019714
:1021D00081F789B7826089BFEFCF8CBF089582B73E
:1021E000089582BF0895809300029093010208959C
:1021F0008093FE019093FF0108951F920F920FB6F6
:102200000F9211242F933F934F935F936F937F937C
:102210008F939F93AF93BF93EF93FF93E091FE0152
:10222000F091FF01309709F00995FF91EF91BF916F
:10223000AF919F918F917F916F915F914F913F915E
:102240002F910F900FBE0F901F9018951F920F9215
:102250000FB60F9211242F933F934F935F936F9379
:102260007F938F939F93AF93BF93EF93FF93E091EF
:102270000002F0910102309709F00995FF91EF916A
:10228000BF91AF919F918F917F916F915F914F918E
:102290003F912F910F900FBE0F901F901895CF93E5
:1022A000DF93EC01892B09F449C09FB58A818370C3
:1022B0009C7F892B8FBD9EB58A81880F880F88717E
:1022C000977E892B8EBD9FB58C818295880F880F54
:1022D000807C9F73892B8FBD9FB58E818295807F77
:1022E0009F7C892B8FBD8C819D81892B09F041C0FA
:1022F0008E819F81892BB9F58E859F859BBD8ABD77
:102300008889998999BD88BD888599850197C9F083
:1023100089B78B7F89BF8A859B850197C9F089B76B
:102320008F7E89BF8C859D850197C9F089B7877F8E
:1023300089BF9EB5987F8881892B8EBDDF91CF9113
:10234000089589B7846089BF8A859B85019739F78D
:1023500089B7806189BF8C859D85019739F789B7D9
:10236000886089BFE6CF41E064E083E00E94330EDD
:10237000C3CF41E065E083E00E94330E8E819F81F0
:10238000892B09F4B9CFEFCF9BBD8ABD089599BDC4
:1023900088BD08958CB59DB508959DBD8CBD0895EB
:1023A000809306029093070208958093040290930D
:1023B00005020895809302029093030208951F92EC
:1023C0000F920FB60F9211242F933F934F935F9369
:1023D0006F937F938F939F93AF93BF93EF93FF93ED
:1023E000E0910402F0910502309709F00995FF9100
:1023F000EF91BF91AF919F918F917F916F915F917D
:102400004F913F912F910F900FBE0F901F901895F5
:102410001F920F920FB60F9211242F933F934F9359
:102420005F936F937F938F939F93AF93BF93EF933C
:10243000FF93E0910202F0910302309709F00995B1
:10244000FF91EF91BF91AF919F918F917F916F918C
:102450005F914F913F912F910F900FBE0F901F9062
:1024600018951F920F920FB60F9211242F933F933E
:102470004F935F936F937F938F939F93AF93BF938C
:10248000EF93FF93E0910602F0910702309709F075
:102490000995FF91EF91BF91AF919F918F917F919E
:1024A0006F915F914F913F912F910F900FBE0F90C1
:1024B0001F901895FC01892BF9F095B5977B8281C7
:1024C000892B85BD95B59F7C8481892B85BD8285AF
:1024D00083BD86819781019781F089B78F7B89BF02
:1024E00080859185019781F089B78F7789BF95B5F0
:1024F000987F8081892B85BD089589B7806489BFC5
:1025000080859185019781F789B7806889BFEFCF72
:1025100083BD089584B5089584BD089580930A020B
:1025200090930B02089580930802909309020895F6
:102530001F920F920FB60F9211242F933F934F9338
:102540005F936F937F938F939F93AF93BF93EF931B
:10255000FF93E0910802F0910902309709F0099584
:10256000FF91EF91BF91AF919F918F917F916F916B
:102570005F914F913F912F910F900FBE0F901F9041
:1025800018951F920F920FB60F9211242F933F931D
:102590004F935F936F937F938F939F93AF93BF936B
:1025A000EF93FF93E0910A02F0910B02309709F04C
:1025B0000995FF91EF91BF91AF919F918F917F917D
:1025C0006F915F914F913F912F910F900FBE0F90A0
:1025D0001F901895CF93DF93EC01892B69F1288127
:1025E00039814A815B81220F331F441F551F220FFF
:1025F000331F441F551F220F331F441F551F220F27
:10260000331F441F551F60E072E18AE790E00E948B
:1026100026142150310930BD29B988858295807FE3
:102620009C81990F892B9E81990F990F990F892B66
:10263000806880BD88E98AB9DF91CF910895909133
:102640002F029F5F9F7120912E02291749F0E09180
:102650002F02F0E0E05DFD4F808390932F02559AAA
:1026600008950097D1F0FC0120812115B1F0DC0123
:10267000119690912F029F5F9F7180912E02981763
:1026800049F0E0912F02F0E0E05DFD4F2083909350
:102690002F02559A2D912111ECCF089520910D0212
:1026A00090910C0281E02913089580E008959091A3
:1026B0000D0280910C02981769F0E0910C02F0E095
:1026C000E25FFD4F808190910C029F5F9F7190931C
:1026D0000C02089580E008952F932FB72F938F93C6
:1026E0009F93EF93FF932CB180910D028F5F8F71B9
:1026F00090910C02981741F0E0910D02F0E0E25F3A
:10270000FD4F208380930D02FF91EF919F918F9158
:102710002F912FBF2F9118958F938FB78F939F93E2
:10272000EF93FF9390912E0280912F029817A1F0C2
:10273000E0912E02F0E0E05DFD4F80818CB9809148
:102740002E028F5F8F7180932E02FF91EF919F91E8
:102750008F918FBF8F9118955598F7CFCDB7DEB772
:102760002E970FB6F894DEBF0FBECDBF80E48983ED
:102770001A821B821C8286E08D831E821F8218862D
:1027800019861A861B861C8680E88D871E86CE01D8
:1027900001960E94A90D0E9461070E94AE010E944D
:1027A0005E000E94CB000E943C020E94C9080E9469
:1027B000E209811137C00E94E2030E948F060E9445
:1027C000B71080E090E00E94CE0142E350E060E06C
:1027D00070E086EA96E00E94F1054CE251E060E08C
:1027E00070E08AE194E00E94F1054EEE52E060E074
:1027F00070E089E193E00E94F10548EE53E060E06B
:1028000070E08DEA90E00E94F10548EE53E060E050
:1028100070E084EF94E00E94F1050E9479050E9427
:102820002406FDCF80E090E00E94CE01C4CFA29F9D
:10283000B001B39FC001A39F700D811D1124911D94
:10284000B29F700D811D1124911D0895A1E21A2ED1
:10285000AA1BBB1BFD010DC0AA1FBB1FEE1FFF1F44
:10286000A217B307E407F50720F0A21BB30BE40B94
:10287000F50B661F771F881F991F1A9469F76095DB
:102880007095809590959B01AC01BD01CF01089595
:10289000DC0101C06D9341505040E0F70895F89479
:0228A000FFCF68
:1028A200FF313233343738392F3435362A31323327
:1028B2002D43303D2B0101010104050607010101F1
:1028C20001000102033F065B4F666D7D077F6F4586
:1028D20056543A00205345513A000D0A00204C3A12
:1028E20000204D3A0020414C4D3A004552523A00E8
:1028F2004D6F64653A204155544F202020202020FE
:10290200004D6F64653A204D414E55414C202020C8
:1029120020002A4D6F6465202F4374726C20433A65
:102922004F757400456E7465722050617373776FD2
:1029320072643A2000202020202020202020202005
:102942002020202020004C4F434B4544204F55541B
:102952002120202020200057524F4E472C20524544
:102962005452592020202000314C74203246616E8E
:102972002033446F6F722034416C00433A426163EA
:0C2982006B20202020202020202020009E
:00000001FF
