:100000000C942A000C94E60C0C940F0D0C94380DF3
:100010000C94270F0C94500F0C9447000C94730E03
:100020000C949C0E0C94C50E0C94A20D0C94CB0D4C
:100030000C9447000C94E30F0C9408100C944700A8
:100040000C94CE0A0C9447000C9447000C94470083
:100050000C94470011241FBECFE5D8E0DEBFCDBF12
:1000600011E0A0E6B0E0EAEAF1E202C005900D92EC
:10007000A834B107D9F722E0A8E4B1E001C01D928D
:10008000AA34B207E1F70E942F100C94D3100C94FD
:10009000000065E080E00E946E0762E080E00E9460
:1000A000730C6AE770E080E00C94D10CCF93DF937F
:1000B000EC010E942D078130910541F49093490194
:1000C0008093480165E080E00E947C0785E090E035
:1000D000209749F086E090E0C130D10521F02297C9
:1000E00031F487E090E0DF91CF910C948E01DF91A5
:1000F000CF91089581E090E00C9456001092490150
:100100001092480165E080E00E947F0788E090E05F
:100110000C948E0181E020914801309149012130F9
:10012000310509F080E0089580E00E942F0A8233B3
:1001300050F08091480190914901019721F090E0A1
:1001400080E00C9456000895CF93DF931F92CDB7B3
:10015000DEB7BE016F5F7F4F90E080E00E94210C10
:1001600089818F3F41F444E050E061E670E090E027
:1001700080E00E94310C10924A010F90DF91CF91E4
:10018000089580914A01089510924A01089581E0EE
:1001900090914A01933008F480E008950F931F93E3
:1001A000CF93DF9300D000D0CDB7DEB78C010E9493
:1001B000C700813009F43FC044E050E0BE016F5FEA
:1001C0007F4F90E080E00E94510CDE011196F80113
:1001D00098012C5F3F4F81E04D919191491380E050
:1001E000E217F307C9F7813089F410924A0181E0E0
:1001F00090E00E948E0190E080E00F900F900F90B1
:100200000F90DF91CF911F910F91089580914A0136
:100210008F5F80934A0182E090E00E948E0180917E
:100220004A01833058F082E090E00E94560083E05B
:1002300090E00E948E0182E090E0DFCF81E090E0CC
:10024000DCCFCF93DF93EC010E94C70081110DC07A
:1002500044E050E0BE0190E080E00E94310C84E078
:1002600090E0DF91CF910C948E01DF91CF910895B2
:100270000F931F93CF93DF9300D01F92CDB7DEB7BC
:10028000AB01FE013196811117C0198221E0622F66
:1002900070E0CF01860F971F8A018E179F07C9F460
:1002A000640F751FFB0110820F900F900F90DF916C
:1002B000CF911F910F91089520E03AE0DF01A20F46
:1002C000B11D632F0E9496109C932F5F8111F6CF72
:1002D000DECFDC012E91CD01205DD8012D938D0163
:1002E000DCCFCF93DF931F92CDB7DEB7BE016F5F38
:1002F0007F4F80E990E00E94210C8981803258F084
:1003000010924C0160E080E990E00E94100C0F9088
:10031000DF91CF91089580934C01F9CFCF93DF9374
:10032000C0914C01D0E0A896CC0FDD1F682FCE0104
:100330000E94100C60914B01CE0101960E94100C9E
:1003400080914B018F5F80934B0160914C016F5FF7
:100350006F7160934C0180E990E0DF91CF910C9434
:10036000100C0F931F93CF93DF9300D000D000D0D9
:10037000CDB7DEB700E510E0BE016A5F7F4FC80170
:100380000E94210C8E818F3F39F1BE016B5F7F4F40
:10039000C80101960E94210C8BE890E00E94B70FE3
:1003A000BE016F5F7F4F8E810E943801CE010196A2
:1003B0000E94B70F80E990E00E94B70FBE016F5F07
:1003C0007F4F8D810E943801CE0101960E94B70FA8
:1003D00086E990E00E94B70F0E5F1F4F00391105AC
:1003E00059F626960FB6F894DEBF0FBECDBFDF914B
:1003F000CF911F910F91089541E062E080E00E944B
:100400001C0A80914D01816080934D0108950197F0
:1004100011F40C94FC0141E062E080E00E94230AA8
:1004200080914D018E7F80934D01089540E063E0FF
:1004300080E00E94560A80914D01826080934D01B8
:100440000895019711F40C94160240E063E080E0F7
:100450000E945D0A80914D018D7F80934D0108952A
:1004600062E080E00E94190A63E080E00E94480A8E
:1004700064E080E00E94480A90E080E00E94070269
:1004800090E080E00E94210240E064E080E00E9471
:100490005D0A80914D018B7F80934D0108950F93EC
:1004A0001F93CF93DF938C01EB010E943B07892BB5
:1004B00019F50115110539F4CE01DF91CF911F9186
:1004C0000F910C9407020130110539F4CE01DF9130
:1004D000CF911F910F910C94210202301105B9F4B4
:1004E00040E064E080E0219761F40E94560A809128
:1004F0004D01846080934D01DF91CF911F910F9149
:1005000008950E945D0A80914D018B7FF3CF0330E7
:10051000110591F781E090E0219711F090E080E0E3
:10052000DF91CF911F910F910C942407FF920F93AD
:100530001F93CF93DF930E943B070197C1F580E0A3
:100540000E942F0AF82E81E00E94080A182F0E94AC
:100550000007082F0E941F07EC0181E0800FF816AA
:1005600088F00E941602812F90E09E0122503109EE
:100570002817390778F0DF91CF911F910F91FF90E5
:100580000C94FC0101500F1570F390E080E00E9484
:100590002102E9CF22968C179D0748F090E080E079
:1005A000DF91CF911F910F91FF900C940702DF9183
:1005B000CF911F910F91FF900895009721F48091A2
:1005C0004D01817008958130910529F480914D018C
:1005D0008695817008958230910531F480914D01A6
:1005E00082FB882780F90895039719F40E942D074C
:1005F000089580E00895CF93DF93EC010E94DD021F
:1006000070E060E0813011F061E070E0CE01DF91D8
:10061000CF910C944F020F931F93CF93DF9300D091
:100620001F92CDB7DEB7AB01FE013196811117C025
:10063000198221E0622F70E0CF01860F971F8A0197
:100640008E179F07C9F4640F751FFB0110820F906E
:100650000F900F90DF91CF911F910F91089520E09F
:100660003AE0DF01A20FB11D632F0E9496109C9308
:100670002F5F8111F6CFDECFDC012E91CD01205D01
:10068000D8012D938D01DCCFCF93DF93CDB7DEB7AB
:100690002A970FB6F894DEBF0FBECDBF80E895E273
:1006A000A0E0B0E089839A83AB83BC8383E090E0D1
:1006B0009E838D8318861F821A861986CE01019625
:1006C0000E94790FEFE5F1E0AEE4B1E08FEF8193A6
:1006D0008D9391E0EF36F907D1F710926F011092E8
:1006E0005E012A960FB6F894DEBF0FBECDBFDF9134
:1006F000CF9108958F929F92AF92BF92CF92DF9247
:10070000EF92FF920F931F93CF93DF93CDB7DEB796
:10071000A6970FB6F894DEBF0FBECDBF7E0182E173
:10072000E80EF11CCE018296570120E2F5012193DB
:100730005F01E817F907D1F784E58A8B8AE38B8B91
:1007400080E00E942F0ABE016D5D7F4F0E940B0367
:10075000CE0183964C01DE0154969C01F9018191F2
:100760009F01FD01EE19FF09882311F08D93F6CF4B
:10077000EE0DFF1D83E480838DE488A30E943B0778
:10078000019741F581E489A31AA28E010F5F1F4FE3
:10079000CE014196680120E2F60121936F01E8172E
:1007A000F907D1F78CE489838AE38A8381E00E9488
:1007B000080ABE016D5D7F4F0E940B03DE01139698
:1007C000F40181914F01FD01E01BF10B882321F021
:1007D0008D93F6CF8DE4D7CFE00FF11F85E28083B4
:1007E00081E48A878CE48B878AE38C870E948A0065
:1007F0008130B1F58FE48D870E948A00813091F5B8
:100800008EE48E87198A9FE5892E91E0992ED40176
:10081000F70191918D91981327C0EA15FB05C9F74F
:100820008EE4E82E81E0F82ED701F80191918D91A8
:1008300098132DC0EC15FD05C9F7A6960FB6F894D0
:10084000DEBF0FBECDBFDF91CF911F910F91FF9003
:10085000EF90DF90CF90BF90AF909F908F900895D2
:100860008DE2C9CF80E2CDCF60E080E00E945E09DA
:10087000C7010E944909C7014196F70121917F01F3
:10088000F40121934F01E816F906B9F7C9CF60E0EA
:1008900081E00E945E09C8010E944909C801419691
:1008A000F80121918F01F70121937F0180179107B2
:1008B000B9F7C3CFCF93DF9300D000D0CDB7DEB769
:1008C0008DE890E00E94B70F80E00E942F0ABE01E1
:1008D0006F5F7F4F0E940B03CE0101960E94B70FFE
:1008E00089E990E00E94B70F81E00E94080ABE01EA
:1008F0006F5F7F4F0E940B03CE0101960E94B70FDE
:100900008DE990E00E94B70F0E943B07BE016F5F28
:100910007F4F0E940B03CE0101960E94B70F81EA20
:1009200090E00E94B70F0E948A00BE016F5F7F4F68
:100930000E940B03CE0101960E94B70F86E990E05A
:100940000E94B70F0F900F900F900F90DF91CF91F3
:1009500008951F93CF93DF9300D000D0CDB7DEB7BB
:10096000182F87EA90E00E94B70FBE016F5F7F4F9C
:10097000812F0E940B03CE0101960E94B70F86E9DA
:1009800090E00E94B70F0F900F900F900F90DF91A3
:10099000CF911F9108958091DE019091DF01A09188
:1009A000E001B091E1010196A11DB11D8093DE012E
:1009B0009093DF01A093E001B093E1010895CF93FC
:1009C000DF93CDB7DEB72B970FB6F894DEBF0FBE1F
:1009D000CDBF83E090E09A83898388E090E09C8398
:1009E0008B831E821D8218861F8281E090E09A8789
:1009F00089878CE78B878BEC94E00E949D0DCE015C
:100A000001960E94690DE0E7F1E0118210821282E6
:100A1000138214821582168217821086118612861E
:100A20003B9681E0EE3DF80781F72B960FB6F894E0
:100A3000DEBF0FBECDBFDF91CF9108952FB78FB727
:100A40008F778FBF6091DE017091DF018091E001AF
:100A50009091E1012FBF08958F929F92AF92BF9224
:100A6000CF92DF92EF92FF924B015C0169017A0114
:100A70000E941E05681979098A099B0921E06C15F5
:100A80007D058E059F0508F420E0822FFF90EF90F2
:100A9000DF90CF90BF90AF909F908F9008958F92EE
:100AA0009F92AF92BF92EF92FF920F931F93CF93BB
:100AB000DF937C014A015B01C0E7D1E08FEF10E0DA
:100AC00001E09A85911120C0F982E8828A829B8296
:100AD000AC82BD820E941E056E837F8388879987C2
:100AE0000A87812F91E01F5F1A3019F02B96992306
:100AF00041F3DF91CF911F910F91FF90EF90BF9045
:100B0000AF909F908F90089590E0EDCF8F929F923D
:100B1000AF92BF92CF92DF92EF92FF92CF93DF938B
:100B2000C0E7D1E08A858130E1F4CA80DB80EC80C7
:100B3000FD808E809F80A884B9840E941E0568195C
:100B400079098A099B096C157D058E059F0548F07A
:100B50000E941E056E837F8388879987E881F981CB
:100B600009952B9681E0CE3DD807E1F6DF91CF9134
:100B7000FF90EF90DF90CF90BF90AF909F908F90BD
:100B8000089560E080E00E945E098CEA90E00E9497
:100B9000490960E081E00E945E098DEB90E00E94CF
:100BA00049091092E201089560E080E00E945E0928
:100BB0000E943B07019761F48EEC90E00E94490986
:100BC00060E081E00E945E0980EF90E00C944909AA
:100BD0008FED90E0F3CF1092E8011092E7010C94B2
:100BE000C105CF930E94F807C82F8F3F71F0809105
:100BF00060008C1751F08091E7019091E801009717
:100C0000D1F5C33431F41092E201C0936000CF916A
:100C1000089580ED8C0F8A30C0F78091E201843016
:100C2000A0F7E82FF0E0ED51FE4FC0838F5F809377
:100C3000E201843051F783EE91E00E94CE000097EC
:100C400049F481E090E09093E8018093E7010E94ED
:100C5000D405DBCF60E0029741F481E00E945E0999
:100C600082E091E00E944909CECF81E00E945E09B6
:100C700083E191E0F7CF81309105A9F5CA3281F483
:100C80000E943B07892B49F481E090E00E943207E3
:100C900089E090E00E948E01DACF90E080E0F6CF0C
:100CA000CF32B9F482E090E09093E8018093E701BD
:100CB00060E080E00E945E0984E291E00E944909C0
:100CC00060E081E00E945E0987E391E00E944909AB
:100CD0009CCFC33409F099CF1092E8011092E7013C
:100CE0000E94C10592CF029709F08FCF90E080E07B
:100CF000C13321F0C23329F481E090E00E94FB026D
:100D000084CF82E090E0C333C9F383E090E0C43342
:100D1000A9F3C33409F079CF94CFCF93DF9300D0F8
:100D2000CDB7DEB7BE016E5F7F4F84E090E00E94DA
:100D3000210C8A818F3F89F58EE18093E90188E259
:100D400090E09093EB018093EA0181E090E0909332
:100D5000ED018093EC011092EF011092EE016EE133
:100D600084E090E00E94100C42E050E06AEE71E0F6
:100D700085E090E00E94310C6091EC0180E490E00D
:100D80000E94100C6091EE0180E390E00E94100C34
:100D90000F900F90DF91CF91089569EE71E084E09C
:100DA00090E00E94210C42E050E06AEE71E085E0A4
:100DB00090E00E94510CBE016F5F7F4F80E490E095
:100DC0000E94210C898190E09093ED018093EC01C9
:100DD000BE016F5F7F4F80E390E00E94210C89810C
:100DE00090E09093EF018093EE01D2CF853638F4F6
:100DF0008093E901682F84E090E00C94100C089532
:100E00008091E9010895CF93DF9300D0CDB7DEB78D
:100E10009A8389838536910568F49093EB018093DA
:100E2000EA0142E050E0BE016F5F7F4F85E090E055
:100E30000E94310C0F900F90DF91CF910895809117
:100E4000EA019091EB010895E9EEF1E08383948348
:100E5000682F80E490E00C94100C8091EC0190914C
:100E6000ED010895E9EEF1E085839683682F80E334
:100E700090E00C94100C8091EE019091EF01089598
:100E80001F93CF93DF93D82F162FC42F40E00E94DB
:100E9000070B41E0CC2321F0C150C23040F440E0C8
:100EA000612F8D2FDF91CF911F910C94540BDF9107
:100EB000CF911F910895CF93DF931F92CDB7DEB7E7
:100EC0009FEF9983433028F4AE014F5F5F4F0E943C
:100ED000A10B89810F90DF91CF910895CF93DF937C
:100EE000C82FD62F41E00E94070B40E06D2F8C2FBA
:100EF000DF91CF910C94540B41E00C94540B40E0E3
:100F00000C94540BCF93DF93C82FD42F40E02223AF
:100F100019F0213059F441E08C2F0E94540B40E02D
:100F20006D2F8C2FDF91CF910C94540B40E0223029
:100F300019F0233031F441E08C2F0E94540B41E032
:100F4000EFCFDF91CF9108951F93CF93DF93C82FF9
:100F5000D62F142F41E00E94070B41E0612F8C2F08
:100F60000E94070B20E0412F6D2F8C2FDF91CF9136
:100F70001F910C948207EF92FF920F931F93CF93D0
:100F8000DF93CDE7D0E099E7E92E90E0F92E0991C3
:100F9000F70111917F0141E0602F812F0E94070B23
:100FA00041E0602F812F0E94540BF0E0C138DF0731
:100FB00071F7C5E7D0E089E7E82E80E0F82E0991C7
:100FC000F70111917F0140E0602F812F0E94070BF4
:100FD00041E0602F812F0E94540BF0E0C937DF07FA
:100FE00071F7DF91CF911F910F91FF90EF900895CE
:100FF0003F924F925F926F927F928F929F92AF92A9
:10100000BF92CF92DF92EF92FF920F931F93CF93F5
:10101000DF931F92CDB7DEB72DE7E22E20E0F22E50
:1010200039E7632E30E0732E45E6C42E40E0D42E1F
:1010300033243A94F70141907F01F30151903F012D
:1010400040E0642D852D0E94540B85E7882E80E0BA
:10105000982E99E7A92E90E0B92E01E010E0F40156
:1010600061914F01AE014F5F5F4FF50181915F01CB
:101070000E94A10B8981811105C0F8013197EC0D07
:10108000FD1D30800F5F1F4F0530110541F741E016
:10109000642D852D0E94540BF4E0CF0ED11C81E805
:1010A000E81680E0F80631F6832D0F90DF91CF919E
:1010B0001F910F91FF90EF90DF90CF90BF90AF9076
:1010C0009F908F907F906F905F904F903F9008958A
:1010D000CF93C82F482F417064E083E00E94540BE7
:1010E000C1FB442740F965E083E00E94540BC2FB3A
:1010F000442740F966E083E00E94540B4C2F46954C
:101100004695469567E083E00E94540B41E062E01B
:1011100081E00E94540B8FEC97E00197F1F700C03B
:10112000000040E062E081E00E94540B8FEC97E009
:101130000197F1F700C00000CF910895CF93C82F19
:1011400040E060E081E00E94540B40E061E081E01B
:101150000E94540B8C2F82958F700E9468088C2FF0
:101160008F70CF910C94680841E060E081E00E94AC
:10117000070B41E061E081E00E94070B41E062E083
:1011800081E00E94070B41E064E083E00E94070BCE
:1011900041E065E083E00E94070B41E066E083E008
:1011A0000E94070B41E067E083E00E94070B40E0EC
:1011B00060E081E00E94540B40E061E081E00E9429
:1011C000540B2FEB8AED90E0215080409040E1F7E6
:1011D00000C0000083E00E9468088FE097E201975A
:1011E000F1F700C0000083E00E9468088FEC97E0F0
:1011F0000197F1F700C0000083E00E9468088FECBF
:1012000097E00197F1F700C0000082E00E946808B3
:101210008FEC97E00197F1F700C0000088E20E9490
:101220009E088FEC97E00197F1F700C000008FE077
:101230000E949E088FEC97E00197F1F700C0000034
:1012400081E00E949E088FE99FE00197F1F700C0BE
:10125000000086E00E949E088FEC97E00197F1F76E
:1012600000C000000895CF93C82F41E060E081E006
:101270000E94540B40E061E081E00E94540B8C2FEF
:1012800082958F700E9468088C2F8F70CF910C947C
:1012900068081F93CF93DF93EC0110E0892B39F49A
:1012A000DF91CF911F9108950E9433091F5FFE01C6
:1012B000E10FF11D80818111F7CFF2CF882321F05A
:1012C000605C813009F060E0862F80680E949E0893
:1012D0008FEC97E00197F1F700C0000008958F921E
:1012E0009F92AF92BF92CF92DF92EF92FF920F93B5
:1012F0001F93CF93DF93CDB7DEB72A970FB6F8943D
:10130000DEBF0FBECDBF6115710581059105A9F442
:1013100080E32A960FB6F894DEBF0FBECDBFDF91F3
:10132000CF911F910F91FF90EF90DF90CF90BF90E2
:10133000AF909F908F900C9433096B017C01F7FE66
:101340000AC08DE20E94330966277727CB016C190A
:101350007D098E099F09D12C8E010F5F1F4F2AE056
:10136000822E912CA12CB12CED2CF12CE00EF11E33
:101370006115710581059105B1F40E151F05F1F494
:101380002A960FB6F894DEBF0FBECDBFDF91CF9186
:101390001F910F91FF90EF90DF90CF90BF90AF9093
:1013A0009F908F900895A50194010E94A210605D06
:1013B000F7016083B901CA01D394D6CFF7018291B6
:1013C0007F010E943309D9CF0F931F93CF93DF93EF
:1013D0006830C8F48C01862F880F880F880F8064CE
:1013E0000E949E08E801085F1F4F89910E943309FF
:1013F000C017D107D1F760E080E0DF91CF911F9156
:101400000F910C945E09DF91CF911F910F91089578
:101410000E94A80A9C01A4E6B0E00E94C410DC016E
:10142000CB012AE0B695A795979587952A95D1F790
:10143000089541E00C94070B413011F40C94540BC7
:101440004423E1F30895413019F440E00C94540B27
:10145000411102C041E0FACF08950C94D80B0E94CC
:10146000A80A9C01A8E8B3E10E94C41020E038E279
:1014700040E050E00E94A2102F3F31054105510588
:1014800029F020F02FEF30E040E050E0822F089567
:10149000CF93DF93C82FD62F41E00E94070B41E086
:1014A0006D2F8C2FDF91CF910C94540B413011F4A0
:1014B0000C94540B4423E1F30895413019F440E0B7
:1014C0000C94540B411102C041E0FACF08956FEF24
:1014D0000C94440B4A3058F4E42FF0E0EF57FF4FE0
:1014E0009081611101C09095692F0C94910B089522
:1014F000611103C06FEF0C94910B60E0FCCFFC0115
:10150000892B19F187B18F739081892B87B987B1A6
:101510008F7D9281892B87B986B1887F9481892BB1
:1015200086B986819781809789F4359A80B78F71C3
:101530009085892B80BF86B1877F9285892B86B95C
:1015400086B18F779485892B86B908953598F3CF26
:1015500097B1907E8F71982B97B9369A349BFECFB6
:10156000349A3D9B0CC024B185B1229526952695D1
:10157000237034E0839FC0011124822B089584B12D
:1015800095B1089597B1907E8F71982B97B9369A3F
:1015900008959093F1018093F00108951F920F92A6
:1015A0000FB60F9211242F933F934F935F936F9336
:1015B0007F938F939F93AF93BF93EF93FF933D9B45
:1015C00023C024B185B1229526952695237034E059
:1015D000839FC0011124822BE091F001F091F10171
:1015E000309709F00995FF91EF91BF91AF919F91CD
:1015F0008F917F916F915F914F913F912F910F90BC
:101600000FBE0F901F90189584B195B1E5CF84302F
:10161000F8F46830E8F44130E1F421E030E001C052
:10162000220F6A95EAF7823061F0833071F08130E1
:1016300021F08AB3282B2ABB089587B3282B27BB18
:10164000089584B3282B24BB089581B3282B21BB94
:1016500008954111FDCF21E030E001C0220F6A95CD
:10166000EAF72095823051F0833059F0813019F03B
:101670008AB32823E0CF87B32823E1CF84B328237C
:10168000E2CF81B32823E3CF813041F028F08230CC
:1016900039F0833039F008956ABB089567BB089527
:1016A00064BB089561BB08958430F8F46830E8F4B1
:1016B0004130E1F421E030E001C0220F6A95EAF701
:1016C000823061F0833071F0813021F08BB3282BB0
:1016D0002BBB089588B3282B28BB089585B3282BEE
:1016E00025BB089582B3282B22BB08954111FDCF5D
:1016F00021E030E001C0220F6A95EAF720958230A0
:1017000051F0833059F0813019F08BB32823E0CFAA
:1017100088B32823E1CF85B32823E2CF82B32823DF
:10172000E3CF813041F028F0823039F0833039F056
:1017300008956BBB089568BB089565BB089562BBAF
:101740000895FA013097D9F0683038F4813089F083
:1017500030F0823081F0833081F08FEF08C089B3A0
:1017600090E002C0959587956A95E2F78170808335
:10177000089586B3F5CF83B3F3CF80B3F1CF8FEF66
:10178000809300000895FB01309759F0813051F0AB
:1017900030F0823049F0833049F08FEF01C089B3D7
:1017A0008083089586B3FCCF83B3FACF80B3F8CF9C
:1017B0008430E8F46830D8F421E030E001C0220F32
:1017C0006A95EAF7823061F0833071F0813021F060
:1017D0008BB328272BBB089588B3282728BB0895EF
:1017E00085B3282725BB089582B3282722BB0895F7
:1017F000813051F028F0823059F0833069F008953B
:101800008BB380958BBB089588B3809588BB089572
:1018100085B3809585BB089582B3809582BB08957A
:10182000811524E0920760F4E199FECF9FBB8EBB47
:101830006DBB9FB78FB78F778FBFE29AE19A9FBF3B
:1018400008956115710561F0811524E0920740F457
:10185000E199FECF9FBB8EBBE09A8DB3FB018083E5
:101860000895EF92FF920F931F93CF93DF937C0124
:101870006115710539F0EB018B01040F151FC017BD
:10188000D10739F4DF91CF911F910F91FF90EF9025
:1018900008956991C7010E94100C8FEFE81AF80AA9
:1018A000EECFEF92FF920F931F93CF93DF936115CB
:1018B000710551F07A01EC01E80EF91E8B01081B4D
:1018C000190BCE15DF0539F4DF91CF911F910F91E0
:1018D000FF90EF900895B8016C0F7D1FCE010E941C
:1018E000210C2196EECF81111EC061110AC085B76F
:1018F0008E7F85BF85B78D7F85BF8BB780648BBF9B
:101900000895613019F485B78160F3CF623031F406
:1019100085B78E7F85BF85B78260EECF633069F76C
:1019200085B78160F7CF8130E9F4611109C085B7CF
:101930008B7F85BF85B7877F85BF8BB78068DFCFFB
:10194000613019F485B78460F4CF623031F485B723
:101950008B7F85BF85B78860EFCF633071F785B720
:101960008460F7CF823061F6623031F484B78F7BC8
:1019700084BF8BB78062C3CF6330D9F784B78064EC
:10198000F7CF811104C08BB78F7B8BBF0895813057
:1019900019F48BB78F77F9CF8230C1F78BB78F7D72
:1019A000F4CF811105C07093F7016093F60108959B
:1019B000813029F47093F5016093F4010895823029
:1019C00021F47093F3016093F20108951F920F9236
:1019D0000FB60F9211242F933F934F935F936F9302
:1019E0007F938F939F93AF93BF93EF93FF93E09178
:1019F000F601F091F701309709F00995FF91EF9109
:101A0000BF91AF919F918F917F916F915F914F9116
:101A10003F912F910F900FBE0F901F9018951F921E
:101A20000F920FB60F9211242F933F934F935F9312
:101A30006F937F938F939F93AF93BF93EF93FF9396
:101A4000E091F401F091F501309709F00995FF91CB
:101A5000EF91BF91AF919F918F917F916F915F9126
:101A60004F913F912F910F900FBE0F901F9018959F
:101A70001F920F920FB60F9211242F933F934F9303
:101A80005F936F937F938F939F93AF93BF93EF93E6
:101A9000FF93E091F201F091F301309709F009957D
:101AA000FF91EF91BF91AF919F918F917F916F9136
:101AB0005F914F913F912F910F900FBE0F901F900C
:101AC00018958FB780688FBF08958FB78F778FBFB6
:101AD0000895FC01892BF9F083B7877B9281892BCC
:101AE00083BF83B78F7C9481892B83BF82858CBF12
:101AF00086819781019781F489B7816089BF80854C
:101B00009185019761F489B7826089BF83B7887F27
:101B10009081892B83BF089589B78E7FEFCF89B7D6
:101B20008D7FF3CF8CBF089582B7089582BF08954B
:101B30009093FB018093FA0108959093F9018093AB
:101B4000F80108951F920F920FB60F9211242F9350
:101B50003F934F935F936F937F938F939F93AF9335
:101B6000BF93EF93FF93E091F801F091F901309763
:101B700009F00995FF91EF91BF91AF919F918F91DE
:101B80007F916F915F914F913F912F910F900FBE79
:101B90000F901F9018951F920F920FB60F9211245D
:101BA0002F933F934F935F936F937F938F939F9365
:101BB000AF93BF93EF93FF93E091FA01F091FB0194
:101BC000309709F00995FF91EF91BF91AF919F91E7
:101BD0008F917F916F915F914F913F912F910F90D6
:101BE0000FBE0F901F901895CF93DF93009709F4C5
:101BF00053C0EC019FB58A8183709C7F892B8FBD78
:101C00009EB58A81880F880F8871977E892B8EBD3B
:101C10009FB58C818295880F880F807C9F73892B5C
:101C20008FBD9FB58E818295807F9F7C892B8FBDD4
:101C30008C819D81892B29F041E065E083E00E9441
:101C4000070B8E819F81892B29F041E064E083E0BE
:101C50000E94070B8E859F859BBD8ABD88899989C7
:101C600099BD88BD888599850197C9F489B7846035
:101C700089BF8A859B850197A9F489B7806189BF4F
:101C80008C859D85019789F489B7886089BF8EB559
:101C9000887F9881892B8EBDDF91CF91089589B778
:101CA0008B7FE6CF89B78F7EEACF89B7877FEECF6C
:101CB0009BBD8ABD089599BD88BD08958CB59DB51D
:101CC00008959DBD8CBD08959093010280930002FC
:101CD00008959093FF018093FE0108959093FD0174
:101CE0008093FC0108951F920F920FB60F9211245A
:101CF0002F933F934F935F936F937F938F939F9314
:101D0000AF93BF93EF93FF93E091FE01F091FF013A
:101D1000309709F00995FF91EF91BF91AF919F9195
:101D20008F917F916F915F914F913F912F910F9084
:101D30000FBE0F901F9018951F920F920FB60F9223
:101D400011242F933F934F935F936F937F938F93C0
:101D50009F93AF93BF93EF93FF93E091FC01F091BA
:101D6000FD01309709F00995FF91EF91BF91AF9177
:101D70009F918F917F916F915F914F913F912F91A3
:101D80000F900FBE0F901F9018951F920F920FB6D5
:101D90000F9211242F933F934F935F936F937F93F1
:101DA0008F939F93AF93BF93EF93FF93E0910002C4
:101DB000F0910102309709F00995FF91EF91BF91E1
:101DC000AF919F918F917F916F915F914F913F91D3
:101DD0002F910F900FBE0F901F901895FC01892B2B
:101DE000F9F085B5877B9281892B85BD85B58F7C80
:101DF0009481892B85BD828583BD868197810197DA
:101E000081F489B7806489BF80859185019761F4E9
:101E100089B7806889BF85B5887F9081892B85BD0A
:101E2000089589B78F7BEFCF89B78F77F3CF83BDC5
:101E3000089584B5089584BD089590930502809314
:101E400004020895909303028093020208951F9262
:101E50000F920FB60F9211242F933F934F935F93DE
:101E60006F937F938F939F93AF93BF93EF93FF9362
:101E7000E0910202F0910302309709F00995FF9179
:101E8000EF91BF91AF919F918F917F916F915F91F2
:101E90004F913F912F910F900FBE0F901F9018956B
:101EA0001F920F920FB60F9211242F933F934F93CF
:101EB0005F936F937F938F939F93AF93BF93EF93B2
:101EC000FF93E0910402F0910502309709F0099523
:101ED000FF91EF91BF91AF919F918F917F916F9102
:101EE0005F914F913F912F910F900FBE0F901F90D8
:101EF0001895CF93DF93EC01892B21F1288139814B
:101F00004A815B8184E0220F331F441F551F8A954D
:101F1000D1F760E072E18AE790E00E94A2102150C0
:101F2000310930BD29B988858295807F9E81990FBE
:101F3000990F990F892B80689C81990F892B80BDFF
:101F400088E98AB9DF91CF910895909129029F5F26
:101F50009F7120912802291749F0E0912902F0E0B1
:101F6000E65DFD4F808390932902559A0895CF93A3
:101F7000DF93EC01892B29F4DF91CF9108950E9422
:101F8000A50F89918111FBCFF7CF20910702909186
:101F9000060281E0291301C080E0089590910702B4
:101FA00080910602981769F0E0910602F0E0E85F80
:101FB000FD4F8081909106029F5F9F719093060272
:101FC000089580E008951F920F920FB60F9211248A
:101FD0002F938F939F93EF93FF939CB18091070270
:101FE0008F5F8F7120910602281741F0E091070260
:101FF000F0E0E85FFD4F908380930702FF91EF913F
:102000009F918F912F910F900FBE0F901F90189559
:102010001F920F920FB60F9211248F939F93EF93FD
:10202000FF9390912802809129029817B1F0E091D6
:102030002802F0E0E65DFD4F80818CB98091280296
:102040008F5F8F7180932802FF91EF919F918F9105
:102050000F900FBE0F901F9018955598F5CFCF9306
:10206000DF93CDB7DEB72E970FB6F894DEBF0FBE65
:10207000CDBF80E490E09A8389831C821B8286E036
:1020800090E09E838D8318861F821A8619861C868F
:102090001B8680E890E09E878D87CE0101960E9486
:1020A0007F0A0E94DF040E948D060E9471010E9437
:1020B00049000E94A4000E9430020E94BB070E94B7
:1020C000B4080E9444030E94EB050E94610D90E059
:1020D00080E00E948E0142E350E060E070E081EF1A
:1020E00095E00E944F054CE251E060E070E08AE725
:1020F00093E00E944F054EEE52E060E070E086E90A
:1021000092E00E944F0548EE53E060E070E084E901
:1021100090E00E944F0548EE53E060E070E08AE5F1
:1021200094E00E944F050E948605FDCF991B79E03F
:1021300004C0991F961708F0961B881F7A95C9F757
:1021400080950895A1E21A2EAA1BBB1BFD010DC0AC
:10215000AA1FBB1FEE1FFF1FA217B307E407F50757
:1021600020F0A21BB30BE40BF50B661F771F881F33
:10217000991F1A9469F760957095809590959B01C9
:10218000AC01BD01CF010895A29FB001B39FC00172
:10219000A39F700D811D1124911DB29F700D811D93
:0A21A0001124911D0895F894FFCF5B
:1021AA00FF313233343738392F3435362A31323326
:1021BA002D43303D2B0405060702020202000102EC
:1021CA00033F065B4F666D7D077F6F4556543A00A5
:1021DA00205345513A000D0A00204C3A00204D3A4E
:1021EA000020414C4D3A004552523A00456E746502
:1021FA00722050617373776F72643A200020202036
:10220A0020202020202020202020202020004D6F68
:10221A0064653A204155544F202020202020004D4B
:10222A006F64653A204D414E55414C2020202000D4
:10223A002A4D6F6465202F4374726C20433A4F75A0
:10224A0074004C4F434B4544204F555421202020C5
:10225A0020200057524F4E472C20524554525920A5
:10226A0020202000314C74203246616E2033446FA6
:10227A006F722034416C00433A4261636B20202024
:08228A0020202020202020006C
:00000001FF
